:100000000C945D000C9485000C9485000C94850084
:100010000C9485000C9485000C9485000C9485004C
:100020000C9485000C9485000C9485000C94A2031C
:100030000C9485000C9485000C9485000C9485002C
:100040000C9458030C9485000C9426030C94000324
:100050000C9485000C9485000C9485000C9485000C
:100060000C9485000C94850000000008000201003B
:100070000003040700000000000000000000000072
:10008000250028002B0000000000240027002A0083
:10009000040404040404040402020202020203032E
:1000A0000303030301020408102040800102040836
:1000B0001020010204081020630411241FBECFEF9A
:1000C000D8E0DEBFCDBF21E0A6E2B1E001C01D92C5
:1000D000A73FB207E1F711E0A0E0B1E0E6ECF2E102
:1000E00002C005900D92A632B107D9F710E0CDE518
:1000F000D0E004C02197FE010E94B006CC35D107A4
:10010000C9F70E94C1040C9461090C940000CF92BD
:10011000DF92EF92FF92DC01A03282E0B8070CF090
:100120003EC0B7FD06C0A53BB1052CF0A4EBB0E086
:1001300002C0A0E0B0E08091F50128E830E069015C
:10014000C81AD10887FDD394CC0CDD1CCC0CDD1C67
:100150000D2C000CEE08FF088091F60128E532E036
:10016000281B310987FD3395220F331F220F331FC0
:10017000A901330F660B770B9A01AB012C193D09CE
:100180004E095F090E94280924EB30E040E050E06E
:100190000E94FE08C20ED31EE41EF51ED6019091E9
:1001A000F4019C3098F58091F50148E850E0481B37
:1001B000510987FD5395440F551F440F551FA41730
:1001C000B5078CF08091F60128E532E0281B310953
:1001D00087FD3395220F331F220F331FAD012A17DE
:1001E0003B070CF4A90142505109440F551F2FB78A
:1001F000F894892F90E0FC01EE0FFF1F8E0F9F1FD8
:10020000FC01E153FE4F528341832FBFFF90EF90DB
:10021000DF90CF900895CF92DF92EF92FF920F93ED
:100220001F93CF93DF936C017A018B01C0E0D0E084
:10023000CE15DF0589F0D8016D918D01D601ED91C4
:10024000FC910190F081E02DC6010995892B11F4F4
:100250007E0102C02196ECCFC701DF91CF911F91A3
:100260000F91FF90EF90DF90CF900895FC01918D5A
:10027000828D981761F0828DDF01A80FB11D5D9608
:100280008C91928D9F5F9F73928F90E008958FEF76
:100290009FEF0895FC01918D828D981731F0828D2A
:1002A000E80FF11D858D90E008958FEF9FEF089581
:1002B000FC01918D228D892F90E0805C9F4F821BE5
:1002C00091098F739927089582E391E00E94580164
:1002D00021E0892B09F420E0822F0895FC01848D10
:1002E000DF01A80FB11DA35ABF4F2C91848D90E060
:1002F00001968F739927848FA689B7892C93A0893B
:10030000B1898C9180648C93938D848D981306C0F1
:100310000288F389E02D80818F7D80830895EF929C
:10032000FF920F931F93CF93DF93EC0181E0888FAF
:100330009B8D8C8D981305C0E889F989808185FD96
:1003400024C0F62E0B8D10E00F5F1F4F0F73112787
:10035000E02E8C8DE8120CC00FB607FCFACFE889AE
:10036000F989808185FFF5CFCE010E946E01F1CF22
:100370008B8DFE01E80FF11DE35AFF4FF0820B8FCA
:10038000EA89FB898081806207C0EE89FF896083EA
:10039000E889F98980818064808381E090E0DF9141
:1003A000CF911F910F91FF90EF900895CF93DF931E
:1003B000EC01888D8823C9F0EA89FB89808185FD5D
:1003C00005C0A889B9898C9186FD0FC00FB607FCBE
:1003D000F5CF808185FFF2CFA889B9898C9185FFFF
:1003E000EDCFCE010E946E01E7CFDF91CF9108954E
:1003F00080E090E0892B29F00E94640181110C9427
:100400000000089590E0FC01E859FF4F3491FC0191
:10041000EC55FF4F2491FC01E057FF4FE491EE2390
:1004200009F43BC0332339F1333091F038F43130E3
:10043000A9F0323001F584B58F7D12C0373091F0CC
:100440003830A1F03430B9F4809180008F7D03C042
:10045000809180008F77809380000DC084B58F7766
:1004600084BD09C08091B0008F7703C08091B00037
:100470008F7D8093B000F0E0EE0FFF1FE458FF4F38
:10048000A591B4918FB7F894EC91611103C02095B8
:100490002E2301C02E2B2C938FBF08953FB7F894C5
:1004A00080912C0190912D01A0912E01B0912F01EE
:1004B00026B5A89B05C02F3F19F00196A11DB11DBF
:1004C0003FBFBA2FA92F982F8827820F911DA11DFA
:1004D000B11DBC01CD0142E0660F771F881F991F37
:1004E0004A95D1F708958F929F92AF92BF92CF9283
:1004F000DF92EF92FF920E944E024B015C0188EE68
:10050000C82E83E0D82EE12CF12C0E944E02DC0193
:10051000CB0188199909AA09BB09883E9340A10516
:10052000B10558F021E0C21AD108E108F10888EEBF
:10053000880E83E0981EA11CB11CC114D104E104F3
:10054000F10419F7FF90EF90DF90CF90BF90AF903C
:100550009F908F900895009769F0FC010190002012
:10056000E9F73197AF01481B590BBC0182E391E0D9
:100570000C940B0180E090E008958F929F92AF92CF
:10058000BF920F931F93CF93DF93CDB7DEB7A197A1
:100590000FB6F894DEBF0FBECDBF19A2423008F4EB
:1005A0004AE08E010F5D1F4F842E912CA12CB12C9F
:1005B000A50194010E943009E62FB901CA0101503A
:1005C0001109EA3014F4E05D01C0E95CD801EC9354
:1005D000232B242B252B61F7C8010E94AB02A19687
:1005E0000FB6F894DEBF0FBECDBFDF91CF911F9144
:1005F0000F91BF90AF909F908F9008950E94F9083F
:100600001F920F920FB60F9211242F933F934F9387
:100610005F936F937F938F939F93AF93BF93EF936A
:10062000FF9382E391E00E946E01FF91EF91BF91F1
:10063000AF919F918F917F916F915F914F913F917A
:100640002F910F900FBE0F901F9018951F920F9231
:100650000FB60F9211242F938F939F93EF93FF93D5
:10066000E0914201F09143018081E0914801F091D5
:10067000490182FD12C0908180914B018F5F8F7381
:1006800020914C01821751F0E0914B01F0E0EE5CBB
:10069000FE4F958F80934B0101C08081FF91EF91B8
:1006A0009F918F912F910F900FBE0F901F901895D3
:1006B0001F920F920FB60F9211242F933F938F9397
:1006C0009F93AF93BF938091280190912901A091AE
:1006D0002A01B0912B013091270123E0230F2D3700
:1006E00020F40196A11DB11D05C026E8230F029636
:1006F000A11DB11D2093270180932801909329010A
:10070000A0932A01B0932B0180912C0190912D018F
:10071000A0912E01B0912F010196A11DB11D8093D2
:100720002C0190932D01A0932E01B0932F01BF9126
:10073000AF919F918F913F912F910F900FBE0F908E
:100740001F9018951F920F920FB60F9211242F939E
:100750003F934F935F936F937F938F939F93AF9349
:10076000BF93EF93FF938091260187FF05C01092FE
:100770008500109284001BC020912601022E000CDF
:10078000330B8091F30190E02817390784F48091AE
:100790002601082E000C990BFC01EE0FFF1F8E0F97
:1007A0009F1FFC01E153FE4F808186FD15C08091A3
:1007B00026018F5F8093260120912601022E000CD6
:1007C000330B8091F30190E028173907C4F480912E
:1007D00026018C3064F113C080912601082E000C94
:1007E000990BFC01EE0FFF1F8E0F9F1FFC01E153C1
:1007F000FE4F808160E08F730E940202D8CF80910B
:10080000840090918500049680349C4918F480E41B
:100810009CE905C080918400909185000496909396
:100820008900809388008FEF809326013BC0209140
:1008300084003091850080912601082E000C990BD0
:10084000FC01EE0FFF1F8E0F9F1FFC01E153FE4FB7
:1008500081819281820F931F9093890080938800F9
:1008600080912601082E000C990BFC01EE0FFF1F52
:100870008E0F9F1FFC01E153FE4F808186FF12C047
:1008800080912601082E000C990BFC01EE0FFF1F32
:100890008E0F9F1FFC01E153FE4F808161E08F733B
:1008A0000E940202FF91EF91BF91AF919F918F91B2
:1008B0007F916F915F914F913F912F910F900FBE5C
:1008C0000F901F901895109235011092340188EE08
:1008D00093E0A0E0B0E08093360190933701A093BD
:1008E0003801B093390188E091E09093330180930F
:1008F000320185EC90E090933F0180933E0184ECBF
:1009000090E0909341018093400180EC90E09093BF
:1009100043018093420181EC90E0909345018093E4
:10092000440182EC90E0909347018093460186EC6D
:1009300090E0909349018093480110924B011092EE
:100940004C0110924D0110924E018091F3018C30B8
:10095000A0F491E0980F9093F3018093F40190E05C
:10096000FC01EE0FFF1F8E0F9F1FFC01E153FE4F96
:1009700088EB9BE09283818308958FEF8093F4014D
:100980000895CF93DF9300D000D0CDB7DEB7789431
:1009900084B5826084BD84B5816084BD85B5826084
:1009A00085BD85B5816085BD80916E008160809335
:1009B0006E0010928100809181008260809381009E
:1009C00080918100816080938100809180008160AE
:1009D000809380008091B10084608093B100809109
:1009E000B00081608093B00080917A008460809331
:1009F0007A0080917A00826080937A0080917A00F8
:100A0000816080937A0080917A00806880937A0078
:100A10001092C1008091F4018C3008F068C0EDEABA
:100A2000F0E02491E9E9F0E08491882399F090E0E6
:100A3000880F991FFC01EA57FF4FA591B491FC0163
:100A4000E458FF4F859194918FB7F894EC91E22B85
:100A5000EC938FBF8091F401E82FF0E09F01220F0B
:100A6000331FE20FF31FE153FE4F9081907C99609A
:100A700090831092F5011092F6016CE00E94A4069A
:100A80009CE0899FB001112440E050E09A01260FBC
:100A9000371FF901EE0FFF1F2E0F3F1FF901E15322
:100AA000FE4F908196FD16C04F5F5F4F4C30510551
:100AB00069F781110FC01092800082E0809381005D
:100AC0001092850010928400B19A80916F0082602C
:100AD00080936F00E091F401F0E0CF01880F991F3F
:100AE000E80FF91FE153FE4F80818064808380E02E
:100AF00090E00E9487000E947302E0914201F09111
:100B0000430182E08083E0913E01F0913F01108239
:100B1000E0914001F09141018FEC808310924A01F5
:100B2000E0914601F091470186E08083E091440125
:100B3000F0914501808180618083E0914401F091D2
:100B40004501808188608083E0914401F0914501F6
:100B5000808180688083E0914401F091450180812B
:100B60008F7D808310E410937C0080917A008064F4
:100B700080937A0080917A0086FDFCCF60917800A6
:100B80008091790070E0782B70933101609330018F
:100B9000072E000C880B990B0E94D20720E030EC46
:100BA0004FE754E40E94280720E030E044E353E498
:100BB0000E9487082B013C019B01AC010E94B706F3
:100BC0009B01AC0160E070E08AE794E40E94280792
:100BD0006B017C014B015C019B01AC010E94F4089C
:100BE000882319F084E191E01FC0D701C601BF77C7
:100BF00089839A83AB83BC832FEF3FEF4FE75FE797
:100C0000BC01CD010E94F408811111C02FEF3FEF0C
:100C10004FE75FE769817A818B819C810E9423077E
:100C200018162CF488E191E00E94AB027DC02FEFF2
:100C30003FEF4FE75FE4C701B6010E948208181634
:100C40001CF48CE191E0F0CF2FEF3FEF4FE75FEC2A
:100C5000C701B6010E94230787FDF3CF20E030E0F3
:100C6000A901C701B6010E94230787FF11C0E091C7
:100C70003201F09133010190F081E02D6DE282E3C9
:100C800091E0099546015701B7FAB094B7F8B094CE
:100C90002AE037ED43EA5BE3C501B4010E94B706E1
:100CA0004B015C010E94A1076B017C010E94D007EF
:100CB0009B01AC01C501B4010E94B6064B015C0169
:100CC0004AE0C701B6010E94BD0280E291E00E94A5
:100CD000AB0220E030E040E251E4C501B4010E94E3
:100CE00087084B015C010E94A1076B01E12CF12CEC
:100CF0004AE0C701B6010E94BD02C701B6010E94C9
:100D0000D0079B01AC01C501B4010E94B60620E0EA
:100D100030E040E251E40E9487080E94A10780E091
:100D200090E04AE00E94BD0282E291E00E94AB02A4
:100D3000C301B2010E949A07CB010E9487000E9462
:100D400073020E94F8010FCF991B79E004C0991F2C
:100D5000961708F0961B881F7A95C9F78095089515
:100D6000EE0FFF1F0590F491E02D09945058BB271A
:100D7000AA270E94CE060C9448080E943A0838F030
:100D80000E94410820F039F49F3F19F426F40C9496
:100D900037080EF4E095E7FB0C943108E92F0E9428
:100DA000590858F3BA17620773078407950720F0AC
:100DB00079F4A6F50C947B080EF4E0950B2EBA2F6F
:100DC000A02D0B01B90190010C01CA01A001112451
:100DD000FF27591B99F0593F50F4503E68F11A16FD
:100DE000F040A22F232F342F4427585FF3CF46958E
:100DF00037952795A795F0405395C9F77EF41F16B0
:100E0000BA0B620B730B840BBAF09150A1F0FF0F79
:100E1000BB1F661F771F881FC2F70EC0BA0F621F65
:100E2000731F841F48F4879577956795B795F79555
:100E30009E3F08F0B0CF9395880F08F09927EE0FEA
:100E40009795879508950E940D0808F481E008950C
:100E50000E943C070C9448080E94410858F00E94E8
:100E60003A0840F029F45F3F29F00C943108511101
:100E70000C947C080C9437080E94590868F3992355
:100E8000B1F3552391F3951B550BBB27AA27621786
:100E90007307840738F09F5F5F4F220F331F441F93
:100EA000AA1FA9F335D00E2E3AF0E0E832D09150C7
:100EB0005040E695001CCAF72BD0FE2F29D0660FB4
:100EC000771F881FBB1F261737074807AB07B0E8F7
:100ED00009F0BB0B802DBF01FF2793585F4F3AF0FD
:100EE0009E3F510578F00C9431080C947C085F3FCC
:100EF000E4F3983ED4F3869577956795B795F79583
:100F00009F5FC9F7880F911D9695879597F908956A
:100F1000E1E0660F771F881FBB1F62177307840706
:100F2000BA0720F0621B730B840BBA0BEE1F88F715
:100F3000E09508950E94A1076894B1110C947C0873
:100F400008950E94610888F09F5798F0B92F99275B
:100F5000B751B0F0E1F0660F771F881F991F1AF0A4
:100F6000BA95C9F714C0B13091F00E947B08B1E086
:100F700008950C947B08672F782F8827B85F39F085
:100F8000B93FCCF3869577956795B395D9F73EF43D
:100F900090958095709561957F4F8F4F9F4F0895E5
:100FA000E89409C097FB3EF4909580957095619503
:100FB0007F4F8F4F9F4F9923A9F0F92F96E9BB27B9
:100FC0009395F695879577956795B795F111F8CF35
:100FD000FAF4BB0F11F460FF1BC06F5F7F4F8F4FA0
:100FE0009F4F16C0882311F096E911C0772321F096
:100FF0009EE8872F762F05C0662371F096E8862F2E
:1010000070E060E02AF09A95660F771F881FDAF784
:10101000880F9695879597F90895990F0008550FB1
:10102000AA0BE0E8FEEF16161706E807F907C0F06E
:1010300012161306E407F50798F0621B730B840B76
:10104000950B39F40A2661F0232B242B252B21F450
:1010500008950A2609F4A140A6958FEF811D811DF0
:10106000089597F99F6780E870E060E008959FEF2A
:1010700080EC089500240A9416161706180609062F
:10108000089500240A9412161306140605060895FE
:10109000092E0394000C11F4882352F0BB0F40F486
:1010A000BF2B11F460FF04C06F5F7F4F8F4F9F4FC6
:1010B000089557FD9058440F551F59F05F3F71F048
:1010C0004795880F97FB991F61F09F3F79F08795AF
:1010D0000895121613061406551FF2CF4695F1DF38
:1010E00008C0161617061806991FF1CF86957105C8
:1010F000610508940895E894BB2766277727CB01FC
:1011000097F908950E940D0808F48FEF08950E9442
:101110009A080C9448080E943A0838F00E94410846
:1011200020F0952311F00C9431080C943708112409
:101130000C947C080E94590870F3959FC1F3950F99
:1011400050E0551F629FF001729FBB27F00DB11D4B
:10115000639FAA27F00DB11DAA1F649F6627B00DDB
:10116000A11D661F829F2227B00DA11D621F739FC4
:10117000B00DA11D621F839FA00D611D221F749FD2
:101180003327A00D611D231F849F600D211D822F19
:10119000762F6A2F11249F5750409AF0F1F0882340
:1011A0004AF0EE0FFF1FBB1F661F771F881F91506D
:1011B0005040A9F79E3F510580F00C9431080C94E3
:1011C0007C085F3FE4F3983ED4F386957795679566
:1011D000B795F795E7959F5FC1F7FE2B880F911D97
:1011E0009695879597F908950E940D08880B990B9D
:1011F000089581E090E0F8940C946109052E97FB26
:101200001EF400940E94150957FD07D00E94300972
:1012100007FC03D04EF40C94150950954095309579
:1012200021953F4F4F4F5F4F089590958095709552
:1012300061957F4F8F4F9F4F08950E945209A59F40
:10124000900DB49F900DA49F800D911D11240895C1
:10125000B7FF0C941D090E941D09821B930B089572
:10126000A1E21A2EAA1BBB1BFD010DC0AA1FBB1FAA
:10127000EE1FFF1FA217B307E407F50720F0A21B1C
:10128000B30BE40BF50B661F771F881F991F1A9489
:1012900069F760957095809590959B01AC01BD01B3
:1012A000CF010895A29FB001B39FC001A39F700D0D
:1012B000811D1124911DB29F700D811D1124911D5E
:0612C0000895F894FFCF31
:1012C60001000000000000008F010B0158013601EB
:1012D6004A01D6016E616E00696E66006F76660021
:0612E6002E000D0A0000BD
:00000001FF
